{
  "contractName": "Hello",
  "abi": [
    {
      "constant": true,
      "inputs": [],
      "name": "luls",
      "outputs": [
        {
          "name": "",
          "type": "uint256"
        }
      ],
      "payable": false,
      "stateMutability": "view",
      "type": "function"
    },
    {
      "constant": true,
      "inputs": [],
      "name": "message",
      "outputs": [
        {
          "name": "",
          "type": "string"
        }
      ],
      "payable": false,
      "stateMutability": "view",
      "type": "function"
    },
    {
      "inputs": [],
      "payable": false,
      "stateMutability": "nonpayable",
      "type": "constructor"
    },
    {
      "constant": false,
      "inputs": [
        {
          "name": "_message",
          "type": "string"
        }
      ],
      "name": "setMessage",
      "outputs": [],
      "payable": false,
      "stateMutability": "nonpayable",
      "type": "function"
    },
    {
      "constant": false,
      "inputs": [],
      "name": "getMessage",
      "outputs": [
        {
          "name": "",
          "type": "string"
        }
      ],
      "payable": false,
      "stateMutability": "nonpayable",
      "type": "function"
    },
    {
      "constant": false,
      "inputs": [
        {
          "name": "_number",
          "type": "uint256"
        }
      ],
      "name": "setNumber",
      "outputs": [],
      "payable": false,
      "stateMutability": "nonpayable",
      "type": "function"
    },
    {
      "constant": false,
      "inputs": [],
      "name": "getNumber",
      "outputs": [
        {
          "name": "",
          "type": "uint256"
        }
      ],
      "payable": false,
      "stateMutability": "nonpayable",
      "type": "function"
    }
  ],
  "bytecode": "0x608060405234801561001057600080fd5b506040805190810160405280601281526020017f48656c6c6f2c20426c6f636b636861696e2100000000000000000000000000008152506000908051906020019061005c92919061006b565b50610539600181905550610110565b828054600181600116156101000203166002900490600052602060002090601f016020900481019282601f106100ac57805160ff19168380011785556100da565b828001600101855582156100da579182015b828111156100d95782518255916020019190600101906100be565b5b5090506100e791906100eb565b5090565b61010d91905b808211156101095760008160009055506001016100f1565b5090565b90565b6104ce8061011f6000396000f300608060405260043610610078576000357c0100000000000000000000000000000000000000000000000000000000900463ffffffff168063021f87dc1461007d578063368b8772146100a85780633fb5c1cb14610111578063ce6d41de1461013e578063e21f37ce146101ce578063f2c9ecd81461025e575b600080fd5b34801561008957600080fd5b50610092610289565b6040518082815260200191505060405180910390f35b3480156100b457600080fd5b5061010f600480360381019080803590602001908201803590602001908080601f016020809104026020016040519081016040528093929190818152602001838380828437820191505050505050919291929050505061028f565b005b34801561011d57600080fd5b5061013c600480360381019080803590602001909291905050506102a9565b005b34801561014a57600080fd5b506101536102b3565b6040518080602001828103825283818151815260200191508051906020019080838360005b83811015610193578082015181840152602081019050610178565b50505050905090810190601f1680156101c05780820380516001836020036101000a031916815260200191505b509250505060405180910390f35b3480156101da57600080fd5b506101e3610355565b6040518080602001828103825283818151815260200191508051906020019080838360005b83811015610223578082015181840152602081019050610208565b50505050905090810190601f1680156102505780820380516001836020036101000a031916815260200191505b509250505060405180910390f35b34801561026a57600080fd5b506102736103f3565b6040518082815260200191505060405180910390f35b60015481565b80600090805190602001906102a59291906103fd565b5050565b8060018190555050565b606060008054600181600116156101000203166002900480601f01602080910402602001604051908101604052809291908181526020018280546001816001161561010002031660029004801561034b5780601f106103205761010080835404028352916020019161034b565b820191906000526020600020905b81548152906001019060200180831161032e57829003601f168201915b5050505050905090565b60008054600181600116156101000203166002900480601f0160208091040260200160405190810160405280929190818152602001828054600181600116156101000203166002900480156103eb5780601f106103c0576101008083540402835291602001916103eb565b820191906000526020600020905b8154815290600101906020018083116103ce57829003601f168201915b505050505081565b6000600154905090565b828054600181600116156101000203166002900490600052602060002090601f016020900481019282601f1061043e57805160ff191683800117855561046c565b8280016001018555821561046c579182015b8281111561046b578251825591602001919060010190610450565b5b509050610479919061047d565b5090565b61049f91905b8082111561049b576000816000905550600101610483565b5090565b905600a165627a7a723058209defc8060e2de04a3694f2b3768baa4f644b7242190ab3ef6219920ad8aaf7750029",
  "source": "pragma solidity ^0.4.24;\r\n\r\ncontract Hello {    \r\n    string public message;\r\n    uint public luls;\r\n\r\n    constructor() public{\r\n        message = \"Hello, Blockchain!\";\r\n        luls = 1337;\r\n        \r\n    }\r\n    \r\n    function setMessage(string _message) public {\r\n        message = _message;\r\n    }\r\n    \r\n    function getMessage() public returns(string){\r\n        return message;\r\n    }\r\n    function setNumber(uint _number) public {\r\n        luls = _number;\r\n    }\r\n    \r\n    function getNumber() public returns(uint){\r\n        return luls;\r\n    }\r\n    \r\n}",
  "sourcePath": "D:\\Blockchain Ninjas\\Fuentes\\SmartContracts\\contracts\\Hello.sol",
  "compiler": {
    "name": "solc",
    "version": "0.4.24+commit.e67f0147.Emscripten.clang"
  },
  "schemaVersion": "2.0.1",
  "updatedAt": "2018-09-23T12:40:54.498Z"
}