{
  "contractName": "Person",
  "abi": [
    {
      "constant": true,
      "inputs": [],
      "name": "personalpaux",
      "outputs": [
        {
          "name": "emiti",
          "type": "string"
        },
        {
          "name": "dued",
          "type": "string"
        },
        {
          "name": "genr",
          "type": "string"
        },
        {
          "name": "pofb",
          "type": "string"
        },
        {
          "name": "cedu",
          "type": "string"
        },
        {
          "name": "place",
          "type": "string"
        },
        {
          "name": "auth",
          "type": "string"
        }
      ],
      "payable": false,
      "stateMutability": "view",
      "type": "function"
    },
    {
      "constant": true,
      "inputs": [],
      "name": "personalp",
      "outputs": [
        {
          "name": "tipe",
          "type": "string"
        },
        {
          "name": "coun",
          "type": "string"
        },
        {
          "name": "num",
          "type": "string"
        },
        {
          "name": "last",
          "type": "string"
        },
        {
          "name": "name",
          "type": "string"
        },
        {
          "name": "nacionality",
          "type": "string"
        },
        {
          "name": "birth",
          "type": "string"
        }
      ],
      "payable": false,
      "stateMutability": "view",
      "type": "function"
    },
    {
      "constant": true,
      "inputs": [],
      "name": "personalpaux2",
      "outputs": [
        {
          "name": "sign",
          "type": "string"
        }
      ],
      "payable": false,
      "stateMutability": "view",
      "type": "function"
    },
    {
      "inputs": [],
      "payable": false,
      "stateMutability": "nonpayable",
      "type": "constructor"
    },
    {
      "constant": false,
      "inputs": [
        {
          "name": "arreData",
          "type": "string[]"
        }
      ],
      "name": "setPassport",
      "outputs": [],
      "payable": false,
      "stateMutability": "nonpayable",
      "type": "function"
    }
  ],
  "bytecode": "0x608060405234801561001057600080fd5b506110f2806100206000396000f300608060405260043610610062576000357c0100000000000000000000000000000000000000000000000000000000900463ffffffff168063439f8d08146100675780635cc0280314610090578063e8768d33146100c1578063f062434f146100f2575b600080fd5b34801561007357600080fd5b5061008e60048036036100899190810190610ea0565b61011d565b005b34801561009c57600080fd5b506100a56103db565b6040516100b89796959493929190610f39565b60405180910390f35b3480156100cd57600080fd5b506100d6610833565b6040516100e99796959493929190610f39565b60405180910390f35b3480156100fe57600080fd5b50610107610c8b565b6040516101149190610f17565b60405180910390f35b80600081518110151561012c57fe5b9060200190602002015160008001908051906020019061014d929190610d2f565b5080600181518110151561015d57fe5b906020019060200201516000600101908051906020019061017f929190610d2f565b5080600281518110151561018f57fe5b90602001906020020151600060020190805190602001906101b1929190610d2f565b508060038151811015156101c157fe5b90602001906020020151600060030190805190602001906101e3929190610d2f565b508060048151811015156101f357fe5b9060200190602002015160006004019080519060200190610215929190610d2f565b5080600581518110151561022557fe5b9060200190602002015160006005019080519060200190610247929190610d2f565b5080600681518110151561025757fe5b9060200190602002015160006006019080519060200190610279929190610d2f565b5080600781518110151561028957fe5b90602001906020020151600760000190805190602001906102ab929190610d2f565b508060088151811015156102bb57fe5b90602001906020020151600760010190805190602001906102dd929190610d2f565b508060098151811015156102ed57fe5b906020019060200201516007600201908051906020019061030f929190610d2f565b5080600a81518110151561031f57fe5b9060200190602002015160076003019080519060200190610341929190610d2f565b5080600b81518110151561035157fe5b9060200190602002015160076004019080519060200190610373929190610d2f565b5080600c81518110151561038357fe5b90602001906020020151600760060190805190602001906103a5929190610d2f565b5080600d8151811015156103b557fe5b90602001906020020151600e60000190805190602001906103d7929190610d2f565b5050565b6007806000018054600181600116156101000203166002900480601f0160208091040260200160405190810160405280929190818152602001828054600181600116156101000203166002900480156104755780601f1061044a57610100808354040283529160200191610475565b820191906000526020600020905b81548152906001019060200180831161045857829003601f168201915b505050505090806001018054600181600116156101000203166002900480601f0160208091040260200160405190810160405280929190818152602001828054600181600116156101000203166002900480156105135780601f106104e857610100808354040283529160200191610513565b820191906000526020600020905b8154815290600101906020018083116104f657829003601f168201915b505050505090806002018054600181600116156101000203166002900480601f0160208091040260200160405190810160405280929190818152602001828054600181600116156101000203166002900480156105b15780601f10610586576101008083540402835291602001916105b1565b820191906000526020600020905b81548152906001019060200180831161059457829003601f168201915b505050505090806003018054600181600116156101000203166002900480601f01602080910402602001604051908101604052809291908181526020018280546001816001161561010002031660029004801561064f5780601f106106245761010080835404028352916020019161064f565b820191906000526020600020905b81548152906001019060200180831161063257829003601f168201915b505050505090806004018054600181600116156101000203166002900480601f0160208091040260200160405190810160405280929190818152602001828054600181600116156101000203166002900480156106ed5780601f106106c2576101008083540402835291602001916106ed565b820191906000526020600020905b8154815290600101906020018083116106d057829003601f168201915b505050505090806005018054600181600116156101000203166002900480601f01602080910402602001604051908101604052809291908181526020018280546001816001161561010002031660029004801561078b5780601f106107605761010080835404028352916020019161078b565b820191906000526020600020905b81548152906001019060200180831161076e57829003601f168201915b505050505090806006018054600181600116156101000203166002900480601f0160208091040260200160405190810160405280929190818152602001828054600181600116156101000203166002900480156108295780601f106107fe57610100808354040283529160200191610829565b820191906000526020600020905b81548152906001019060200180831161080c57829003601f168201915b5050505050905087565b6000806000018054600181600116156101000203166002900480601f0160208091040260200160405190810160405280929190818152602001828054600181600116156101000203166002900480156108cd5780601f106108a2576101008083540402835291602001916108cd565b820191906000526020600020905b8154815290600101906020018083116108b057829003601f168201915b505050505090806001018054600181600116156101000203166002900480601f01602080910402602001604051908101604052809291908181526020018280546001816001161561010002031660029004801561096b5780601f106109405761010080835404028352916020019161096b565b820191906000526020600020905b81548152906001019060200180831161094e57829003601f168201915b505050505090806002018054600181600116156101000203166002900480601f016020809104026020016040519081016040528092919081815260200182805460018160011615610100020316600290048015610a095780601f106109de57610100808354040283529160200191610a09565b820191906000526020600020905b8154815290600101906020018083116109ec57829003601f168201915b505050505090806003018054600181600116156101000203166002900480601f016020809104026020016040519081016040528092919081815260200182805460018160011615610100020316600290048015610aa75780601f10610a7c57610100808354040283529160200191610aa7565b820191906000526020600020905b815481529060010190602001808311610a8a57829003601f168201915b505050505090806004018054600181600116156101000203166002900480601f016020809104026020016040519081016040528092919081815260200182805460018160011615610100020316600290048015610b455780601f10610b1a57610100808354040283529160200191610b45565b820191906000526020600020905b815481529060010190602001808311610b2857829003601f168201915b505050505090806005018054600181600116156101000203166002900480601f016020809104026020016040519081016040528092919081815260200182805460018160011615610100020316600290048015610be35780601f10610bb857610100808354040283529160200191610be3565b820191906000526020600020905b815481529060010190602001808311610bc657829003601f168201915b505050505090806006018054600181600116156101000203166002900480601f016020809104026020016040519081016040528092919081815260200182805460018160011615610100020316600290048015610c815780601f10610c5657610100808354040283529160200191610c81565b820191906000526020600020905b815481529060010190602001808311610c6457829003601f168201915b5050505050905087565b600e806000018054600181600116156101000203166002900480601f016020809104026020016040519081016040528092919081815260200182805460018160011615610100020316600290048015610d255780601f10610cfa57610100808354040283529160200191610d25565b820191906000526020600020905b815481529060010190602001808311610d0857829003601f168201915b5050505050905081565b828054600181600116156101000203166002900490600052602060002090601f016020900481019282601f10610d7057805160ff1916838001178555610d9e565b82800160010185558215610d9e579182015b82811115610d9d578251825591602001919060010190610d82565b5b509050610dab9190610daf565b5090565b610dd191905b80821115610dcd576000816000905550600101610db5565b5090565b90565b600082601f8301121515610de757600080fd5b8135610dfa610df582611006565b610fd9565b9150818183526020840193506020810190508360005b83811015610e405781358601610e268882610e4a565b845260208401935060208301925050600181019050610e10565b5050505092915050565b600082601f8301121515610e5d57600080fd5b8135610e70610e6b8261102e565b610fd9565b91508082526020830160208301858383011115610e8c57600080fd5b610e97838284611065565b50505092915050565b600060208284031215610eb257600080fd5b600082013567ffffffffffffffff811115610ecc57600080fd5b610ed884828501610dd4565b91505092915050565b6000610eec8261105a565b808452610f00816020860160208601611074565b610f09816110a7565b602085010191505092915050565b60006020820190508181036000830152610f318184610ee1565b905092915050565b600060e0820190508181036000830152610f53818a610ee1565b90508181036020830152610f678189610ee1565b90508181036040830152610f7b8188610ee1565b90508181036060830152610f8f8187610ee1565b90508181036080830152610fa38186610ee1565b905081810360a0830152610fb78185610ee1565b905081810360c0830152610fcb8184610ee1565b905098975050505050505050565b6000604051905081810181811067ffffffffffffffff82111715610ffc57600080fd5b8060405250919050565b600067ffffffffffffffff82111561101d57600080fd5b602082029050602081019050919050565b600067ffffffffffffffff82111561104557600080fd5b601f19601f8301169050602081019050919050565b600081519050919050565b82818337600083830152505050565b60005b83811015611092578082015181840152602081019050611077565b838111156110a1576000848401525b50505050565b6000601f19601f83011690509190505600a265627a7a723058204296e6ad0ae2a0e1c8f45c66324559e5080e552b91cb8580e0f16e31bddff9136c6578706572696d656e74616cf50037",
  "source": "pragma solidity ^0.4.24;\r\npragma experimental ABIEncoderV2;\r\n\r\ncontract Person {\r\n    \r\n    Passport public personalp;\r\n    Passaux public personalpaux;\r\n    Passaux2 public personalpaux2;\r\n    \r\n    struct Passport{\r\n        string tipe;        //Type\r\n        string coun;        //Country of origin\r\n        string num;         //Passport no\r\n        string last;        //Last Name\r\n        string name;        //Name\r\n        string nacionality; //Nacionality\r\n        string birth;       //Birthday\r\n    }\r\n    \r\n    struct Passaux{\r\n        string emiti;       //Date of emition\r\n        string dued;        //Due date\r\n        string genr;        //Genre\r\n        string pofb;        //Place of birth\r\n        string cedu;        //Cédula de identidad\r\n        string place;       //Place of birth\r\n        string auth;        //Authority                \r\n    }\r\n\r\n    struct Passaux2{\r\n        string sign;        //signature\r\n    }\r\n    \r\n    \r\n\r\n    constructor () public {\r\n        \r\n    }\r\n    \r\n    function setPassport(string[] arreData) public {\r\n        personalp.tipe = arreData[0];\r\n        personalp.coun = arreData[1];\r\n        personalp.num = arreData[2];\r\n        personalp.last = arreData[3];\r\n        personalp.name = arreData[4];\r\n        personalp.nacionality = arreData[5];\r\n        personalp.birth = arreData[6];\r\n        \r\n        personalpaux.emiti = arreData[7];\r\n        personalpaux.dued = arreData[8];\r\n        personalpaux.genr = arreData[9];\r\n        personalpaux.pofb = arreData[10];\r\n        personalpaux.cedu = arreData[11];\r\n        \r\n        personalpaux.auth = arreData[12];        \r\n\r\n        personalpaux2.sign = arreData[13];\r\n        \r\n    }\r\n    \r\n\r\n    \r\n\r\n}",
  "sourcePath": "D:\\Blockchain Ninjas\\Fuentes\\SmartContracts\\contracts\\Person.sol",
  "compiler": {
    "name": "solc",
    "version": "0.4.24+commit.e67f0147.Emscripten.clang"
  },
  "schemaVersion": "2.0.1",
  "updatedAt": "2018-09-23T12:40:54.671Z"
}